:100000000C9420030C9458030C9458030C9458033C
:100010000C9458030C9458030C9458030C945803F4
:100020000C9458030C9458030C9487280C945B2967
:100030000C9458230C9458030C9458030C945803B4
:100040000C9458030C9458030C9458030C945803C4
:100050000C94BB1E0C94DF230C9458030C9458038F
:100060000C9458030C9458030C9458030C945803A4
:100070000C9458030C9458030C9458030C94580394
:100080000C9458030C9458030C9458030C94580384
:100090000C9458030C9458030C9458030C94580374
:1000A0000C9458030C9458030C945803E000E1009E
:1000B00039002B003500290000000000000000007E
:1000C0000000E3000000040014001E003A000000DD
:1000D0000000000000000000E2001D0016001A00F1
:1000E0001F003B00000000004D004A004C004F0084
:1000F0001B000700080020003C00520000003100F7
:1001000000004500510006000900150021003D00D7
:10011000E500280030002E004400500019000A00BD
:10012000170022003E00380034002F002D0043004D
:100130002C0005000B001C0023003F000000000005
:1001400000002A000151E40011000D0018002400F5
:10015000400037003300130027004200E600100083
:100160000E000C002500410036000F001200260092
:100170000000010001000100010001000100000079
:10018000000000000000000001000000C35C01004E
:100190000100A800000000000000000000000100B5
:1001A000C05CC55C01000100AA00000000004E0018
:1001B0004B0049000100BE5CC45C01000100A900C5
:1001C000010000000100000048000100BF5C0100C8
:1001D000005C0100AC0001000100CA5CC85C470083
:1001E0000100C15C010001000100AE000100CC5C17
:1001F000CB5CC95C46000100010001000100010068
:10020000AB00000000000000010001000100145CD0
:1002100001000100010001000100CD5C0100C65C8D
:1002200001000100010001000100010001000100C6
:1002300001000100C75C00001E0F0500047F3F1F86
:10024000643214643214783C1E1E140A05222325DD
:100250002628292A2C2D2F3032333536383A3B3D8B
:100260003E4042434547494A4C4E505153555759D9
:100270005A5C5E6062646668696B6D6F71737577F6
:10028000797B7D7F81838587898A8C8E90929496F5
:10029000989A9C9E9FA1A3A5A7A8AAACAEAFB1B304
:1002A000B4B6B8B9BBBCBEBFC1C2C3C5C6C7C9CA54
:1002B000CBCCCDCED0D1D2D2D3D4D5D6D7D7D8D916
:1002C000D9DADADBDBDBDCDCDCDCDCDDDDDDDDDC74
:1002D000DCDCDCDCDBDBDBDADAD9D9D8D7D7D6D586
:1002E000D4D3D2D2D1D0CECDCCCBCAC9C7C6C5C348
:1002F000C2C1BFBEBCBBB9B8B6B4B3B1AFAEACAA95
:10030000A8A7A5A3A19F9E9C9A98969492908E8C44
:100310008A89878583817F7D7B79777573716F6D1E
:100320006B6968666462605E5C5A595755535150F8
:100330004E4C4A4947454342403E3D3B3A383635AC
:100340003332302F2D2C2A292826252322FFAA7F5D
:100350005540000000000000000000000001010204
:1003600003040506080A0C0F1114181C2024292E5A
:1003700033393F464C535B626A7179818A929AA203
:10038000AAB2B9C1C8CFD5DCE1E7EBF0F4F7FAFCCB
:10039000FDFEFFFEFDFCFAF7F4F0EBE7E1DCD5CF64
:1003A000C8C1B9B2AAA29A928A8179716A625B5372
:1003B0004C463F39332E2924201C1814110F0C0AE7
:1003C000080605040302010100000000000000000F
:1003D000000000010101010101010101020202020C
:1003E00002020202020303030303030303040404DF
:1003F00004040404050505050506060606060707A8
:1004000007070708080808090909090A0A0A0B0B5F
:100410000B0C0C0C0D0D0D0E0E0E0F0F0F101011FE
:100420001111121213131414151516161717181884
:1004300019191A1A1B1B1C1D1D1E1E1F20202122EC
:1004400022232424252626272829292A2B2C2D2D32
:100450002E2F30313232333435363738393A3B3C4F
:100460003D3E3F404142434445464748494A4C4D42
:100470004E4F50515354555658595A5B5D5E5F610B
:100480006264656668696B6C6D6F7072737577789E
:100490007A7B7D7E8082838587888A8C8E8F9193FC
:1004A0009596989A9C9EA0A2A3A5A7A9ABADAFB123
:1004B000B3B5B7BABCBEC0C2C4C6C9CBCDCFD1D408
:1004C000D6D8DBDDDFE2E4E7E9EBEEF0F3F5F8FAAE
:1004D000FDFF1403490044003800300020004100B3
:1004E0004E005300490000000E03490044004F0035
:1004F000420041004F0000000403090409023B00D0
:10050000020100A0FA090400000103010100092111
:1005100011010001224000070581030800010904C0
:100520000100010300000009211101000122B600B1
:100530000705820320000112010002000000086488
:1005400069800001000102000105010902A1018585
:10055000020901A1000509190129081500250195C5
:1005600008750181020501093009311581257F9542
:10057000027508810609381581257F950175088166
:1005800006050C0A38021581257F9501750881063C
:10059000C0C005010980A101850319012AB7001512
:1005A0000126B700950175108100C0050C0901A155
:1005B00001850419012AA002150126A002950175E2
:1005C000108100C005010906A1018506050719E093
:1005D00029E7150025019508750181020507190015
:1005E00029EF1500250195F0750181020508190113
:1005F0002905950575019102950175039101C005C5
:10060000010906A101050719E029E7150025019553
:1006100008750181029501750881010507190029F6
:10062000FF150026FF0095067508810005081901D1
:100630002905950575019102950175039101C00089
:1006400011241FBECFEFDAE0DEBFCDBF04B603FE3C
:1006500018C08091DA039091DB03A091DC03B09184
:10066000DD038730904BA740B04B59F41092DA036A
:100670001092DB031092DC031092DD03E0E0F8E35C
:10068000099511E0A0E0B1E0E2EDF9E502C00590C6
:100690000D92A23DB107D9F723E0A2EDB1E001C070
:1006A0001D92AA3DB207E1F70E9438120C94CA2CA1
:1006B0000C94000081E0089581E008950E945C039D
:1006C000089508950E9461030895A5E0B0E0EBE667
:1006D000F3E00C94BC2B49835A833091D901898172
:1006E0009A81311119C0662399F0222389F00E9462
:1006F0000D09182F682F89819A810E94E908698164
:100700007A81812F0E94960F2596E3E00C94D82BD6
:100710000E94FB08182FF3CF0E940D0969817A818E
:10072000F1CFFC01262F4081518162817381848148
:100730000E946503089581E00895CF93DF93EC0153
:1007400060E00E949103BE010E946203DF91CF919D
:1007500008950E94D91008950E94DD10089508950B
:100760000E94B4070E94AF032FEF84E39CE0215066
:1007700080409040E1F700C0000008950E94B0035F
:100780000E94032408950E94B0030E942724089524
:100790000F931F93CF93DF938C0161E00E9491032D
:1007A000EC01B8010E945E03811106C080E0DF9178
:1007B000CF911F910F910895B801CE010E94D31DD2
:1007C0008823A1F3B801CE010E948921882371F307
:1007D000B801CE010E948D1F882341F3B801CE01DC
:1007E0000E94FB20882311F3B801CE010E94F11B67
:1007F0008823E1F2F8018281882361F0CB35FDE5A1
:10080000DF0701F158F4C115ECE5DE0791F0CF3DAB
:10081000DC4591F0C8010E945A03C9CFCD358DE562
:10082000D80769F090F0C83ADD45A1F70E94C303EC
:10083000BDCF0E94BE03BACF0E94C70DF7CF0E9462
:10084000050DE8CF0E940F0DE5CF0E94130DE2CFFA
:100850000E94342380E00E94791E0E945A040E9464
:10086000571A08950E94FF1C0E945E040E942E1BCE
:100870000E943923089508950E943B04089581E061
:100880000895CF93C82F0E943F04882319F0C1FD1B
:1008900003C0479ACF9108954798FCCF3F9A479A53
:1008A0000895CF93C82F0E943C048C2F0E944104CE
:1008B000CF91089580E00E94510408950E94E5219F
:1008C0000E9451040895CF930E94E521C82F809182
:1008D000D4018C1779F0C093D4010E94C423609393
:1008E000D5017093D6018093D7019093D8018C2FB6
:1008F0000E945104CF910895ABE0B0E0E2E8F4E04B
:100900000C94BD2B4F83588769877A878B87611139
:100910000E94500C1E821D8285E0FE013796DE018A
:10092000119601900D928A95E1F78C819D81892B1A
:1009300061F449815A816B817C818D819E810E9405
:10094000790B2B96E2E00C94D92B89819A8189232B
:100950008F3F79F3CE0101960E949B038111E9CF6D
:10096000F0CFFC01808191810E943F090895CF93CF
:10097000C82F8823B9F08CEF8C0F813AA8F46C2F24
:1009800080910401909105010E945A22882329F048
:100990008C2F0E94100C0E94710C8C2F0E94080C4E
:1009A0000E94710CCF91089580E28C0F883048F43A
:1009B000C77081E001C0880FCA95EAF70E94330C26
:1009C000EFCFEBE5EC0FE33040F4F0E0E25AFE4FFE
:1009D000808190E00E941A22E5CFE8E5EC0FE73134
:1009E00050F4F0E0EE0FFF1FE05DFE4F808191813B
:1009F0000E943022D7CFCD3EA8F28C2F0E94BC128D
:100A00000E948F13CFCF882379F19CEF980F913AF2
:100A100028F40E94100C0E94710C089590E2980F27
:100A2000983050F4877091E001C0990F8A95EAF7E9
:100A3000892F0E94390CEFCF9BE5980F933028F453
:100A400090E080E00E941A22089598E5980F97316F
:100A500028F490E080E00E94302208958D3E20F03E
:100A60000E9416130E948F1308951F93CF93DF9354
:100A7000182FEB010E94B704209739F4812F0E94B0
:100A80000305DF91CF911F9108958FE99FE00197B2
:100A9000F1F700C000002197EFCF70E060E08933EC
:100AA00011F460E570E00E9435050895882321F077
:100AB0000E94330C0E94710C0895882321F00E943B
:100AC000390C0E94710C0895B0E0A0E0EAE6F5E070
:100AD0000C94B62B6C01D62FC72FFC011281F58028
:100AE000F2949FE0F9220E94290CE82E8823B9F0A5
:100AF000E12E1123A1F08C2F807F803421F080E241
:100B00008D0F8830D0F08091620382FF16C082E0A2
:100B10000E94D40C0E94290C91E0E82EE926BC2EFC
:100B2000B2948FE0B822FBE0FB1508F468C0EB2D0F
:100B3000F0E0E453F34D0C94762BE12CF0CF0C2F26
:100B40000F70C07F11F00295007F112399F00023F0
:100B500059F080E28D0F883010F0D11107C0802F3E
:100B60000E94330C0E94710C8D2F41C0802F0E9477
:100B7000430CF8CF8D2F0E940305002309F43FC0DA
:100B800080E28D0F883010F0D11104C0802F0E94B8
:100B9000390C03C0802F0E94490C0E94710C2FC099
:100BA0000C2F0F70C07FC03211F00295007FDD2343
:100BB00081F0D13009F463C0112309F46DC0FF2026
:100BC00009F463C0F601858180FFCECF8F708583E5
:100BD0005CC08091620382FD33C0112359F0002371
:100BE00029F0802F0E94330C0E94710C80E00E943B
:100BF000B70405C080E00E9403050111C7CFEB2DAB
:100C0000E850FF0B349720F40E94E5210E94510424
:100C1000EE2089F00E94250C80FD0DC0F6011282A5
:100C20000E941F0C0E944708C6010E9474070E9480
:100C30001F0C0E945708CDB7DEB7E9E00C94D22B09
:100C4000112389F0F11006C00E94530C802B0E94E2
:100C50005605D5CF21E0F212F7CF0E94530C802B1E
:100C60000E945A0CCCCFF11006C00E94670C802F56
:100C70000E945D05C4CF31E0F31609F2F6CF1123CF
:100C800031F085E08F1508F4BACF802FE0CF94E0E3
:100C90009F1508F4B4CFEBCFFF2049F3D93349F4C3
:100CA000FFEF27EE33E0F15020403040E1F700C085
:100CB00000008D2F0E940305A2CF8C2F869586956C
:100CC000837069F0813009F09ACF8D2F9C2F93703B
:100CD000111102C090E080E00E94302290CF8D2F51
:100CE0009C2F9370111102C090E080E00E941A22A4
:100CF00086CF8D2F112329F00E94BC120E948F13E2
:100D00007ECF0E941613FACF8C2F8370A1F511119C
:100D100076CF4D2F429546954770440F440F2D2FA7
:100D20002F7030E0042E02C0220F331F0A94E2F726
:100D300090E080E0D4FF09C08FE090E002C0880F0F
:100D4000991F4A95E2F780959095C695C695C37010
:100D5000822B932BC23049F058F4C13019F00E9415
:100D600015084DCF0E940C084ACF0E941E0847CF9D
:100D70000E94090844CF8695112311F08C2F8170B1
:100D8000882309F43CCF4D2F429546954770440F78
:100D9000440F2D2F2F7030E0042E02C0220F331F7E
:100DA0000A94E2F790E080E0D4FF09C08FE090E081
:100DB00002C0880F991F4A95E2F780959095C695D5
:100DC000C695C370822B932BC23049F058F4C130C2
:100DD00019F00E94820813CF0E94790810CF0E9458
:100DE0008B080DCF0E942D080ACFCF70112329F058
:100DF0008C2F0E9447088D2F2ACF8D2F0E945D05D2
:100E00008C2F0E945708FBCED23F51F160F4D03FA7
:100E1000B9F0D13F81F0112309F449C0F110A4CEFB
:100E20008C2F8F7121C0D33F11F1D43FA1F7809156
:100E3000620382FD26C08C2F8F71112311F314C021
:100E4000112349F084E08F1508F4D9CE8C2F8F71CF
:100E50000E946908D4CE95E09F1508F4D0CEF6CF55
:100E60008C2F8F711111CDCF0E944708C8CE11234E
:100E700029F08C2F8F710E943B08C1CE0E9436084A
:100E8000BECE112349F0CF718C2F0E94470863E03A
:100E90008C2F0E94B60CB3CE81E00E94D40CE1E00E
:100EA000EF1508F0ACCE82E00E94D40CA8CEF11071
:100EB000F5CE8C2F8F71A5CF0F931F93CF93DF9318
:100EC000EC01688179818A810E944A098C010E9423
:100ED00094080E940808B801CE010E946405DF91C1
:100EE000CF911F910F910895CF93DF93EC018B81E8
:100EF0009C81892B29F08881998189238F3F51F426
:100F0000DF91CF910895CE010E945C07CE010E942F
:100F10009D03F6CFCE010E94C8038111F4CF0E9439
:100F2000290C882369F38A81882351F38091620315
:100F300082FFE6CF82E00E94D40CE2CF90E080E016
:100F40000E941A2290E080E00E9430220E94500C01
:100F50000E94710C0E94AB130E948F1308950E948F
:100F6000180C0E949E0708950E94400C0E94AF0733
:100F7000089592959F70963091F058F4925F9F700B
:100F8000923058F4803F19F030F4883E30F481E01C
:100F900008959A5FF4CF843FD1F380E00895883EAE
:100FA000B0F3813FD1F7F3CFFC0183819481892B8A
:100FB00029F08081918189238F3F11F480E0089589
:100FC000808191810E943F090E94B9070895A5E0A0
:100FD000B0E0EDEEF7E00C94BD2B2596E2E00C942A
:100FE000D92BA6E0B0E0E7EFF7E00C94BD2B2696F6
:100FF000E2E00C94D92B08950E94FB0708950E940B
:10100000FC0790931102809310020E949E0708959E
:1010100008950E94FF070895209110023091110257
:10102000822B932B0E94FF0708952091100230918C
:101030001102822393230E94FF070895209110023A
:1010400030911102822793270E94FF0708950E9482
:10105000FB0708950E94270808950E942A0890938C
:101060000F0280930E020E949E07089590E080E098
:101070000E942D08089521E030E0A90102C0440F2C
:10108000551F8A95E2F7CA010E942D08089521E0B4
:1010900030E002C0220F331F8A95E2F780910E02E2
:1010A00090910F02822B932B0E942D08089521E02E
:1010B00030E002C0220F331F8A95E2F72095309569
:1010C00080910E0290910F02822393230E942D089B
:1010D000089521E030E002C0220F331F8A95E2F725
:1010E00080910E0290910F02822793270E942D0873
:1010F000089520910E0230910F02822B932B0E94B3
:101100002D08089520910E0230910F02822393231F
:101110000E942D08089520910E0230910F0282271F
:1011200093270E942D0808950895262F277091E097
:1011300001C0990F2A95EAF723E0769567952A95DD
:10114000E1F7660F771F660F771FFA01E60FF71FAB
:1011500050E040E0682F70E08191DF0111979B0122
:10116000042E02C0369527950A94E2F72170219546
:101170002827292328272C934F5F5F4F44305105A0
:1011800059F70895A82FA77023E0969587952A957B
:10119000E1F7880F991F880F991FFB01E80FF91FCE
:1011A00050E040E080E0219130E00A2E02C0369508
:1011B00027950A94E2F721703327042E01C0220FED
:1011C0000A94EAF7822B4F5F5F4F4430510559F77D
:1011D0000895262F993070F48B3060F4682F70E0FA
:1011E0008BE0989F600D711D11244AED51E0822F14
:1011F0000E9495080895292F993068F48B3058F48F
:1012000090E06AED71E03BE0239F800D911D112479
:101210000E94C208089580E00895B0E0A0E0E3E1F4
:10122000F9E00C94B62B7C0100910E0210910F0294
:101230008091100290911102082B192BCFE0D0E081
:10124000CC24C394D12CBC2EC6010C2E02C0880F16
:10125000991F0A94E2F780239123892B49F421975F
:1012600090F7B12C8B2DCDB7DEB7E9E00C94D22BE3
:10127000B7018C2F0E94B10F019789F3F3CFCF9361
:10128000DF93EC010E940D09BE010E94B10FDF91B6
:10129000CF9108951F93CF93DF93EB019091D901E4
:1012A000992339F0CB010E943F09DF91CF911F9123
:1012B0000895882369F0CB010E940D09182F682F2B
:1012C000CE010E94E908BE01812F0E94B10FEDCF2F
:1012D000CB010E94FB08182FF6CF1F93CF93DF930B
:1012E000C091120216E0809113028C1304C0DF91AA
:1012F000CF911F910895D0E01C9FF0011D9FF00D2C
:101300001124EC5EFD4F40815181628173818481A3
:1013100095810E94F1072196C770E5CF4091440264
:1013200050914502609146027091470280914802B7
:10133000909149020E94F10708951F93CF93DF9384
:1013400080914902807F09F049C08091460288233C
:1013500009F444C080911202C091130260914402CA
:1013600070914502A0914702B0914802D62FD72331
:1013700016E0C81799F190E0109711F0DF3F19F4CB
:1013800001968770F6CF189F9001199F300D112498
:10139000F901EC5EFD4F41814713F2CF40814613C6
:1013A000EFCF42814111ECCF438154814A1B5B0B4B
:1013B000483C510528F7809149028F7080618093E5
:1013C0004902F901E75EFD4F80818F708061808363
:1013D00084E492E00E9474070E946D09DF91CF912E
:1013E0001F910895A1E1B0E0E8EFF9E00C94B52B6E
:1013F0008C0185E0F801DE011D9601900D928A9521
:10140000E1F7F801E28084E4C82E82E0D82E6091F2
:101410004702709148026115710509F44EC190911F
:10142000440220914502892F82238F3F09F445C150
:1014300040815181A380B480F0904602F501E61B03
:10144000F70BFF2009F4EAC080914902382F307F62
:10145000E83CF10508F0A3C031116DC0FE2C251346
:1014600016C0941314C0E11012C08F708061809375
:1014700049020E948E09C6010E94740780914902A8
:10148000F80185838F2D6196EAE00C94D12BA1148D
:10149000B10429F0842F85238F3F09F027C180E014
:1014A000F82FF170DF2E80FF3CC080911202209156
:1014B000130236E0821315C04D875E878D859E85A9
:1014C0000E943F09292F22952F702230F0F02430FE
:1014D00018F59F70F1F0F8019581907FD1F4D12C2F
:1014E0001EC090E0389FF001399FF00D1124EC5E92
:1014F000FD4F6181651306C06081641303C0628182
:10150000E6120FC001968770D5CF9F7011F0882327
:1015100031F3805E883018F3C8010E947407FD2CF7
:10152000B1CFEE2009F4AECF809149028160809363
:101530004902F12CA7CF251306C0941304C0F8016B
:10154000EE2009F487C0C8010E94D407882319F14E
:10155000EE2009F180914902803270F0209144021E
:101560003091450238872F831986BB86AA868C87DF
:10157000CE0107960E94740786E0F801A4E4B2E069
:1015800001900D928A95E1F70E949D090E948E09B3
:10159000FF24F39477CFC8010E947407F9CF31116B
:1015A00013C07A2DB98AA88A6E2D89890E94E7070F
:1015B00084E492E00E94740786E0F60111928A9515
:1015C000E9F70E948E09B5CF25130FC094130DC003
:1015D000E1100BC0F8018583C8010E94740786E002
:1015E000F60111928A95E9F74DCFC8010E94D40700
:1015F000882389F2EE2079F280914902803208F442
:10160000BBCF20914402309145023A8329831B824B
:10161000BD82AC828E83CE010196ACCFE83CF10551
:1016200008F03EC0FE2CEE2009F4B5CF25132AC0E9
:10163000941328C08091490280FD1BC0982F907F91
:10164000C1F0F8018583903F31F0982F907F905F33
:101650008F70892B8583C8010E94740786E0F8018A
:10166000A4E4B2E001900D928A95E1F70E948E0900
:1016700009CF86E0F801A4E4B2E001900D928A95CA
:10168000E1F700CFC8010E94D407811175CF809186
:101690004902816080934902C8010E947407F2CE1A
:1016A0007A2DB98AA88A6E2D89890E94E70786E07B
:1016B000F60111928A95E9F7D9CFEE2009F46BCFA4
:1016C000C8010E94D407F82E882309F464CF86E06D
:1016D000F801A4E4B2E001900D928A95E1F784E468
:1016E00092E00E94B1040E949D09C0CF81E08E2546
:1016F000D7CEACE0B0E0EFE7FBE00C94BC2B4F831F
:10170000588769877A878B879C87CE0107960E94C6
:10171000F209882369F08A859B85892B39F04F81EE
:101720005885842F85238F3F09F06BC016E05FC07A
:1017300086E0FE013796DE01119601900D928A95A2
:10174000E1F78A859B85892B89F388859F81892389
:101750008F3F61F32091130230E0C9010196877039
:101760009927409112024817190671F40E94B40794
:10177000109213021092120286E0E4E4F2E0DF011C
:101780001D928A95E9F7D2CF96E0929FD001939F60
:10179000B00D1124AC5EBD4FFE01319601900D924B
:1017A0009A95E1F7809313020E946D09BFCF819F44
:1017B000C00111248C5E9D4F0E94F2098823E9F03C
:1017C000E09112021E9FF0011124EC5EFD4F40815A
:1017D000518162817381848195810E94F10780919A
:1017E000120290E0019687709927809312028091EF
:1017F0001202909113028913DACF2C96E3E00C9435
:10180000D82B69857A858B859C850E94F1078ECFC0
:10181000682F80910401909105010E94DA220895B9
:10182000682F80910401909105010E94E82208959B
:1018300080910401909105010E94F6220895809103
:101840006A02859585958595089580916A028770CD
:10185000089590916A02977081E009F480E00895FC
:1018600080918D02089590918D02892B80938D0235
:101870000895809590918D02982390938D020895FC
:1018800010928D02089590918C02892B80938C0286
:101890000895809590918C02982390938C020895DE
:1018A00010928C02089580916B02089508950E9411
:1018B000560C08959091620392FF08C090916B02BC
:1018C000981721F080936B020E94570C0895809125
:1018D0006B02882329F010926B0280E00E94570C63
:1018E0000895CF93DF93E0910401F0910501809179
:1018F0008D028083E0910401F09105018081909137
:101900008C02892B808390916B02992381F0E09166
:101910000401F09105018081892B8083809104016D
:10192000909105010E94462281110E94670CC0918E
:101930000401D091050140E250E06AE472E0CE017A
:101940000E944D2C892B59F080E2FE01AAE4B2E0FE
:1019500001900D928A95E1F7CE010E94F221DF916C
:10196000CF91089508950E94B20C0895909162035A
:1019700092FF11C098E0899F90011124622B60931F
:101980006A020E94470880916A028595859585952F
:101990000E94B30C08950E944708089510926A02AD
:1019A00080E00E94B30C089590916A02809589238B
:1019B00080936A02282F277091F4282F082E000C9C
:1019C000330B9217130659F09091620392FF07C0F0
:1019D0008595859585950E9457080E94CE0C08959F
:1019E0009091620392FB222720F9281769F080FB6F
:1019F00092F99093620380916103909162030E9437
:101A0000410D82E00E94D40C08958091620382FB14
:101A1000882780F991E089270E94F00C089581E0E1
:101A20000E94F00C089580E00E94F00C08956FEF82
:101A30007FEF90E080E00E94952C089590E080E098
:101A40000E94712C21E0883E9E4F09F020E0822FF9
:101A5000089582E090E00E94632C089583E090E076
:101A60000E94632C0895CF9384E090E00E94632C41
:101A7000C82F82E290E00E94632C982F8C2FCF9188
:101A80000895CF93C92F682F84E090E00E94772CAF
:101A90006C2F82E290E00E94772CCF910895AB01E9
:101AA000BC018FE090E00E94892C0895AB01BC013D
:101AB00083E190E00E94892C089560E070E0CB0102
:101AC0000E94560D089560E070E0CB010E944F0D1A
:101AD0000E945D0D089568EE7EEF90E080E00E9428
:101AE000952C60E082E090E00E94772C60E083E03B
:101AF00090E00E94772C109211021092100260E088
:101B000084E090E00E94772C64E082E290E00E9402
:101B1000772C60E085E090E00E94772C60E086E022
:101B200090E00E94772C6FEF87E090E00E94772C86
:101B300040E050E0BA0188E090E00E94892C60E02B
:101B40008DE090E00E94772C40E050E0BA0188E1FF
:101B500090E00E94892C60E087E190E00E94772C61
:101B600040E050E0BA018CE190E00E94892C70E0E6
:101B700060E080E290E00E94952C40E050E0BA01E5
:101B800088E190E00E94892C0E94630D08950E94D4
:101B90006B0D0895682F8EE090E00E94772C0895D9
:101BA0000E94C4236093A6027093A7028093A802A8
:101BB0009093A9026093A2027093A3028093A4025F
:101BC0009093A5020895089508950E94E40D089544
:101BD00008950E94E80D08958BE990E10E94DB21B1
:101BE0000E94E30D0E94E50D089581E008950E9492
:101BF000F50D0895089508950E94FA0D0E94FB0DB9
:101C000008950E94BA100E944E040E944B1F08952E
:101C10000E94AF230E9499110E94010E0E94FF1C96
:101C20000E94F21A0E94E90D0895AAE0B0E0EBE1EB
:101C3000FEE00C94B22B0E94AF1120E9822E22E02C
:101C4000922E640110E0F601E190F1906F01812F76
:101C50000E94E0101F5F193009F449C0E816F90628
:101C600091F38091AA0281FD0E94E9100E94F70D74
:101C7000782E10E0812F0E94E0107C01F401A190E9
:101C8000B1904F018A159B0561F100E0CC24C3940B
:101C9000D12CAE24BF24C5018C219D21892BC1F0FC
:101CA0007720B1F00E831F8321E0C7018C219D2195
:101CB000892B09F420E028870E94B8238160782FBF
:101CC0009A8789874E815F8168858A850E947C0416
:101CD0000F5FCC0CDD1C0B30F1F6F4013297F18272
:101CE000E0821F5F193031F60E94D00D22C0E81645
:101CF000F90609F0B6CF0E94B8238C0180918E02BC
:101D000090918F0208171907A1F08FEF89838A83BA
:101D10001B820E94B8238160782F9D838C83498128
:101D20005A816B818D810E947C0410938F020093F5
:101D30008E020E94381B0E94A41E0E94CD130E9496
:101D400063042A96EDE00C94CE2BCF93DF930E9490
:101D5000B60FEC01811521E5920708F042C081150C
:101D600030E5930708F09FC0883E910530F5803E2E
:101D7000910508F094C0883A910588F4853A910558
:101D800008F086C08130910509F489C0009709F4F4
:101D900086C0049708F083C0D0E0C0E080C08F3BCD
:101DA0009105D0F7C85AD0E0CC0FDD1FCF59DE4FD8
:101DB0000990D881C02DD46472C0811540E2940787
:101DC00050F4C11581E0D80708F069C0CD3ED105B7
:101DD00018F3D06564C081159044F0F2DF70D06ACA
:101DE0005EC0811535E5930718F5811544E5940724
:101DF00008F085C0C11583E5D80708F06CC0C1158F
:101E000022E5D20708F462C0CE018370992721E051
:101E100030E002C0220F331F8A95E2F7C695C695BF
:101E200080E2C89FE0011124C22BD32BDC6837C0AD
:101E3000811539E59307A8F4811548E5940708F062
:101E400063C0C11586E5D80708F0A6CF8C2F0E9485
:101E50005810C82FD0E0DC2FCC27CC27DF71D06200
:101E60001EC081152AE5920708F453C090568115CB
:101E7000904208F091CF8D2F8F710E94581090E002
:101E8000982F882788279F719C012C2BE901E7CF89
:101E9000C55AD0E0C157DE4FC881D0E0D064CE0132
:101EA000DF91CF9108958370992721E030E002C03F
:101EB000220F331F8A95E2F7C695C69540E2C49F6C
:101EC000E0011124C22BD32BDD68E9CFDC2FCC2716
:101ED000C16FD06AE4CFCE018370992721E030E052
:101EE00002C0220F331F8A95E2F7C695C69540E2DD
:101EF000C49FE0011124C22BD32BDA68D0CFD82F96
:101F0000CC27C46FD06ACBCFD82FCC27C06FD06A74
:101F1000C6CF8F700E94581034E0D695C7953A9579
:101F2000E1F7CF709C2FEC01D069B9CF972F7930B2
:101F3000A8F46B3098F470E02BE0929F600D711D57
:101F40001124FB0193E6899FE00DF11D1124EE0F92
:101F5000FF1FE455FF4F85919491089580E090E034
:101F600008950E94960F0E94A50E0895823891054B
:101F7000B9F1B0F48133910509F47DC048F4893298
:101F8000910509F46DC08A32910509F47BC008956A
:101F90008533910509F45FC08933910509F10895EE
:101FA000833E9105D9F138F4803E910529F1823EB6
:101FB000910579F10895863E9105D9F1873E910505
:101FC00009F43EC0843E910541F52091620321FF52
:101FD00024C08091610384FD19C087EE90E00895CC
:101FE00020916103237009F05AC02091620323FFFE
:101FF00014C089E290E008952091610320FD38C06B
:102000003091620330FF09C024FF43C090E080E0BC
:1020100008952091610322FDF7CF08952091610377
:1020200022FD3AC03091620330FD39C024FFF5CF64
:10203000EDCF2091610323FFF0CF24FDE7CFCDCF7B
:102040002091610323FD2EC03091620331FFEECF5A
:1020500084EE90E008952091610325FFDECFC9CF83
:102060002091610325FD21C02091620323FFD5CF7C
:1020700089E390E0D2CF2091610326FFCECF8AE2A0
:1020800090E008952091610326FFC7CF81E390E09F
:10209000089583EE90E0089582EE90E0089580EE3A
:1020A00090E0089586EE90E0089585E390E008952D
:1020B0009091610392FF06C0282F28712830F9F40F
:1020C000877F846093FF06C0282F28712831F1F4A0
:1020D000877E84612091620320FF06C0382F38710B
:1020E0003830D9F4877F816021FF06C0282F2871FE
:1020F0002831D1F4877E816194FD877E0895282F51
:1021000024712430F9F68B7F8860DCCF282F24716E
:10211000243101F78B7E8861DDCF382F317131306A
:1021200019F78E7F8860E0CF282F2171213121F7A8
:102130008E7E8861E1CF80E008950E94170D08959A
:102140000E94AF112FEF86E791E021508040904030
:10215000E1F700C000000E94AF1180E00E94E01093
:1021600085FF04C00E949D100E94032408950E94D0
:10217000A01008950E941E0D811102C00E94C70D7B
:102180000E94290D8093AA020E94330D909362034E
:10219000809361030E94B7100E942E0D90E00E9470
:1021A000090880910E0290910F020E942A0808955A
:1021B00008950E94D810089508950E94DC10089593
:1021C000E82FF0E0EE0FFF1FEB58FC4F808191816C
:1021D0000895089580EA8A95F1F7089500C008955A
:1021E0000E94EA100895F894E82FE295EF70F0E06D
:1021F00031A1282F2F7081E090E001C0880F2A952F
:10220000EAF7982F9095932391A392A1892B82A30B
:10221000789408950F931F93CF93DF93CDE9D1E086
:1022200089918F3F11F00E94F31081E0C63AD807E0
:10223000B9F7C2E9D1E00DE911E089918F3F11F0C2
:102240000E94F3100C171D07C1F7DF91CF911F916A
:102250000F910895AF92BF92DF92EF92FF920F938A
:102260001F93CF93DF938C01D62EC62FD0E0CE01E3
:1022700083569E4F7C01FC0120812F3F09F44CC006
:10228000F894E22FE295EF70F0E031A12F7081E039
:1022900090E001C0880F2A95EAF7932F982B91A31D
:1022A00092A18095892382A378940E94EE10E2E99E
:1022B000F1E041E050E0B12CA12C21912F3FB1F190
:1022C000A22FA295AF70B0E090968C9190E02F7005
:1022D00002C0959587952A95E2F780FD27C0CA012F
:1022E000A82AB92A440F551F81E0ED39F80729F7CC
:1022F000F70180818F3F11F00E94F31061E0A1147B
:10230000B10409F460E08D2D0E94F010CC0FDD1FA8
:10231000C00FD11FB982A882DF91CF911F910F9179
:10232000FF90EF90DF90BF90AF90089590E080E035
:10233000D7CF0E940A1182E1E5E7F3E0DF01982F91
:102340001D929A95E9F7E3E6F3E0DF011D928A9585
:10235000E9F789E00E94EA110E94A9030895A2E129
:10236000B0E0E5EBF1E10C94BA2B8E010F5F1F4F4B
:1023700082E1F80111928A95E9F7F12C6F2DC801DD
:102380000E942A11F394F9E0FF12F8CF42E150E0E5
:10239000B80183E693E00E944D2C21E0009709F4F8
:1023A00020E0892B41F082E1F801A3E6B3E001903F
:1023B0000D928A95E1F749E065E773E083E693E0E3
:1023C0000E94EB11182F0E94AC03812F6296E5E06A
:1023D0000C94D62B0895CF92DF92EF92FF921F9329
:1023E000CF93DF936C017B01C42F222349F081E05E
:1023F0008093AD020E94B8239093AC028093AB020D
:102400001091AD0211110AC010E0812FDF91CF9120
:102410001F91FF90EF90DF90CF9008958091AB02D5
:102420009091AC020E94D023059770F3D0E0CC0FBE
:10243000DD1FAE01B601C7010E944D2C892B41F072
:10244000AE01B601C7010E945A2C1092AD02DDCF39
:1024500010E0FBCF0E94DD250E94080E0E94EA25B5
:1024600008950E94EF250E94150E0E9409260895E6
:102470000E9451230E94C3250E94EC0D0E942A1243
:102480000E9431120E94FC0DFBCF8091B40280FFAC
:102490000DC060910B0170E0660F771F6038710509
:1024A00070F56115710569F1862F089581FF07C0E8
:1024B00060910B0184E0689FB0011124EFCF60911F
:1024C0000B0182FD0AC08091B3028823A9F02091FC
:1024D0000A0160910B01821710F088E0ECCF869F13
:1024E000C001112433E0880F991F3A95E1F7622F5C
:1024F00070E00E94402BD2CF68E070E0D5CF8FE72C
:10250000089581E008958091B40280FF0CC060912D
:10251000070170E07595679575956795611571056B
:1025200049F1862F089581FF06C06091070170E090
:1025300075956795F3CF6091070182FD0BC090916F
:10254000B2029923A1F060910601809107019617CC
:1025500038F0682F70E06038710500F38FE7089558
:10256000899FC001112470E00E94402BF4CF61E0EC
:1025700070E0D7CF81E008958D3E31F40E9445127E
:1025800081958093B80208958E3E19F40E944512F9
:10259000F8CF8F3E31F40E94451281958093B702A7
:1025A0000895803F19F40E944512F8CF893F29F41D
:1025B0000E9483128093B90208958A3F21F40E94F9
:1025C00083128195F7CF8B3F31F40E94831281955E
:1025D0008093BA0208958C3F19F40E948312F8CFB9
:1025E0009FE0980F983070F4815F990B21E030E004
:1025F00001C0220F8A95EAF78091B602822B809360
:10260000B60208958D3F31F48091B40281608093C9
:10261000B40208958E3F21F48091B4028260F7CF16
:102620008F3FB9F78091B4028460F1CF4091B70237
:102630008D3E59F48091B80287FF0DC01092B80208
:1026400041110BC01092B30208C08E3E81F48091FC
:10265000B80218169CF3442381F08091B90290913E
:10266000BA02892B09F05AC01092B20208958F3E27
:1026700049F447FFF0CF1092B7028091B802811160
:10268000ECCFE0CF803F19F41416ACF3E4CF909177
:10269000B902893F29F41916F4F61092B902DBCF7A
:1026A0008A3F19F497FFD7CFF8CF9091BA028B3FAA
:1026B00029F497FFD0CF1092BA02CDCF8C3F19F4F6
:1026C0001916CCF3C8CF9FE0980F983090F4815F33
:1026D000990B21E030E0B90102C0660F771F8A959F
:1026E000E2F7CB0180959091B60289238093B602E0
:1026F000B2CF8D3F31F48091B4028E7F8093B402CB
:10270000AACF8E3F21F48091B4028D7FF7CF8F3F07
:1027100009F0A1CF8091B4028B7FF0CF08950E9481
:10272000B8239C019091B7028091B802982B21F0B8
:102730003093B1022093B0029091B9028091BA0215
:10274000982B21F03093AF022093AE0285EB92E0FC
:102750000E940C22089586E0E5EBF2E0DF011D9275
:102760008A95E9F71092B3021092B2021092B40265
:102770000895FC01828181110EC0838181110BC0FB
:102780008481811108C091E08581811101C090E0B0
:10279000892F8170089581E0FCCFA6E0B0E0E3EDE1
:1027A000F3E10C94BC2B86E0E5EBF2E0DE01119640
:1027B00001900D928A95E1F71092B7021092B8023B
:1027C0001092B9021092BA028B819C81892B89F0F8
:1027D0008091B0029091B1020E94D023AC019091FF
:1027E000B3029923C9F180910C018417150608F4EE
:1027F00040C08D819E81892B91F08091AE02909195
:10280000AF020E94D023AC019091B202992309F447
:1028100071C0809108018417150608F479C0BE01C3
:102820006F5F7F4F85EB92E00E940823811105C006
:1028300085EB92E00E94B91381110E948F1386E00C
:10284000FE013196A5EBB2E001900D928A95E1F779
:102850002696E3E00C94D82B20910D018AE0289F66
:10286000900111242417350720F69F5F9093B3023F
:1028700002C09F3FD1F71B81112359F00E944512DE
:102880009FEF11160CF491E0899F802D1124809305
:10289000B7021C81112359F00E9445129FEF1116B7
:1028A0000CF491E0899F802D11248093B80230911F
:1028B000B702332309F49DCF2091B802222309F4F3
:1028C00098CF45EB3403C0011124992359F090931C
:1028D000B70245EB240390011124332339F03093E0
:1028E000B80287CF81E08093B702F3CF81E0809375
:1028F000B8027FCF209109018AE0289F900111241E
:102900002417350708F08BCF9F5F9093B20202C067
:102910009F3FD1F71D81112359F00E9483129FEF31
:1029200011160CF491E0899F802D11248093B90237
:102930001E81112359F00E9483129FEF11160CF48F
:1029400091E0899F802D11248093BA023091B902C1
:10295000332309F464CF2091BA02222309F45FCF14
:1029600045EB3403C0011124992359F09093B90227
:1029700045EB240390011124332339F03093BA023C
:102980004ECF81E08093B902F3CF81E08093BA0209
:1029900046CFEF92FF920F931F93CF93DF93EB01FC
:1029A000E82FD1110EC0442321F0F0E0EE52FC4F8D
:1029B000E4916E2F7E2F8E2FCDB7DEB7E6E00C941C
:1029C000D52B0D2F10E0282F30E0442329F02E5274
:1029D0003C4FF901249130E0F6E0CF9FC001112473
:1029E000EFEFF0E0BF010E942C2BAB018C2F90E0A9
:1029F000880F991FA5E5A49FB001A59F700D112414
:102A0000861B970B982F990F980FBF01601B710BB6
:102A1000629FD001639FB00D729FB00D11248B2F68
:102A20009D9FB0011124672F7727EF01C61BD70B9D
:102A3000BE01629FE001639FD00D729FD00D1124F3
:102A40007F01E91AF108E09EB001E19E700DF09E51
:102A5000700D1124672F7727E61BF70BE29F80018B
:102A6000E39F100DF29F100D1124E12F722F4230C1
:102A7000510599F048F44115510569F0413051056F
:102A800081F0EB2F8D2F07C04430510569F080F0A5
:102A900046305105B1F76E2F8FCFE22F7B2F812F5C
:102AA000FACFE22F7D2FF7CFEB2F822F712FF3CFAD
:102AB0007B2F822FED2FEFCF41E00E94C9140895A4
:102AC00008950E945C150895CF93DF93762FE90156
:102AD000682F842F0E946115798368838A83DF9130
:102AE000CF910895453B08F044EB0E94641508958A
:102AF00080918703982F9E7F61F48170826080931C
:102B0000870380918A03853B18F084EB80938A03C6
:102B100008958635B0F381708465F1CF88E090E048
:102B20000E946B2C0895CF92DF92EF92FF926B017F
:102B30007C010E947815B701A60188E090E00E9410
:102B4000892CFF90EF90DF90CF900895E7E8F3E0B5
:102B500083E0808311828FEF828384EB83831482EE
:102B600060817181828193810E9493150895809183
:102B7000870380FF02C08695089580E008959091B4
:102B80008B03933018F49F5F90938B03882351F04D
:102B900060918703709188038091890390918A03E3
:102BA0000E949315089581E00E94BF1508959091A9
:102BB0008B03992319F0915090938B03882351F044
:102BC00060918703709188038091890390918A03B3
:102BD0000E949315089581E00E94D715089570E032
:102BE0000E94611F0895609112018091870380FF08
:102BF0000BC08091110123E0829FC00111248457F2
:102C00009C4F0E94EF15089580911301909114013B
:102C100023E0829FF0011124E457FC4F891748F705
:102C20001182108212828F5F3396F8CF90918703C2
:102C300090FF0EC0909113012091140133E0939FF7
:102C4000F0011124E457FC4F921718F00E94F3157D
:102C500008958183608342839F5F3396F5CFA3E01D
:102C6000B0E0E5E3F6E10C94BD2B9091870390FF73
:102C70000AC09E012F5F3F4F0E9472154B816981F0
:102C80008A810E9416162396E2E00C94D92BCF93EA
:102C9000DF93EC01EC81F0E0E35BFD4F4491E7E86A
:102CA000F3E0628181810E942F168C818F5F8C837B
:102CB000DF91CF910895CF93DF93EC01E7E8F3E044
:102CC000438162818C810E942F168C818F5F8C835F
:102CD000DF91CF910895A3E0B0E0E1E7F6E10C9435
:102CE000BB2B8C018091BB0281110AC09E012F5F1A
:102CF0003F4F44EB6FEF0E9472158A818093BB02B5
:102D0000F8016481613069F08091BB0240E0662384
:102D100061F040E0623011F44091BB0280E060E07D
:102D200004C06091BB0240E080E00E941616F801EA
:102D3000848190E0019663E070E00E94402B8483E0
:102D40002396E4E00C94D72BA3E0B0E0EAEAF6E1A6
:102D50000C94B62B082FD62EE42EC22E909187030A
:102D600090FF29C0E92FE695AE2FB0E0AA55BE4FDF
:102D70008C9180932B039E7F923009F59E012F5FEB
:102D80003F4F802F0E9472154B8169818A810E947A
:102D9000161600938803D0928903E0928A03CC2010
:102DA00051F060918703709188038091890390911D
:102DB0008A030E9493152396E9E00C94D22B82306B
:102DC00019F4E0908A03E5CF863019F40091880366
:102DD000E0CF8930D9F38931E1F6E9516E2F617086
:102DE000B62EE695F0E0E35BFC4F1491F12C609178
:102DF0001501F61618F00E94F315CBCFF19EC00115
:102E0000112470E00E942C2B802FB11014C0860F6B
:102E100020911301622F6F0D7727771F9B01220FDF
:102E2000331F260F371F24573C4F4E2D6D2D0E9408
:102E30007215F394DCCF861BEBCFE7E8F3E09181CA
:102E4000282F4381628188E0890F0E94A41608958B
:102E500081E00E941D170895E7E8F3E09181282F93
:102E60004381628188EF890F0E94A416089581E052
:102E70000E942C170895E7E8F3E0628128E0620FD2
:102E800008F46FEF282F438181810E94A4160895D2
:102E900081E00E943B170895E7E8F3E0628128E0B3
:102EA000621B08F460E0282F438181810E94A416F0
:102EB000089581E00E944C170895E7E8F3E043810C
:102EC00028E0420F08F44FEF282F628181810E9491
:102ED000A416089581E00E945D170895E7E8F3E0E5
:102EE000438128E0421B08F440E0282F6281818161
:102EF0000E94A416089581E00E946E17089520E0B4
:102F00000E94A4160895EF92FF921F93CF93DF9330
:102F1000EC0110E0EE24EA94F12C609115011617F3
:102F200070F00E94F3159A818C8190FF27C08F5F0B
:102F30008C83DF91CF911F91FF90EF9008952091A6
:102F40001301422F410F5527551FCA019A01220F25
:102F5000331F280F391F24573C4F70E0C7010E94D0
:102F6000402B962F8C8140918A0360918903199F91
:102F7000800D11240E9472151F5FCFCF8150D8CFD2
:102F8000B0E0A0E0E6ECF7E10C94B52BFC01828107
:102F90000FEF80FF01E010E044E1A42E80911501C5
:102FA000181798F00E94F3158091BD02013009F0C6
:102FB0004FC0811102C08091150181508093BD02E4
:102FC000CDB7DEB7EAE00C94D12BC0911301C12E2E
:102FD000D12CCC0DDD2DD11DCE01880F991FC80F2E
:102FE000D91FC457DC4F198218821A8234E0E32EAD
:102FF000F12CB12C8091BD028B0D85311CF16A2D15
:103000000E941E2B892F082E000C990BC816D9067A
:1030100091F480918A038E9DA0018F9D500D112403
:1030200055954795559547959E01609189038091E7
:1030300088030E947215B00EF1E0EF1AF108D1F684
:103040001F5FACCF87FFDFCF90911501890FDBCFDA
:1030500090E001966091150170E00E94402BAECF88
:103060000F931F93CF93DF938091130190911401DD
:1030700023E0829FF0011124E457FC4F891740F1AF
:10308000C0E0D3E060911501C61740F10E94F3152E
:1030900020910F018091BC02820F8093BC0290911D
:1030A0001001920F90931001191654F4082E000C81
:1030B000990B409115014150550B841795071CF051
:1030C000219520930F01DF91CF911F910F910895CA
:1030D0001182108212828F5F3396D0CF0C2F10E0B6
:1030E00070E0C8010E94402B20911301820F482FED
:1030F00050E02091BC02022E000C330B0217130784
:10310000BCF020911001022E000C330B2017310768
:103110007CF08D9F9001112424573C4F40918A03ED
:1031200060918903809188030E947215CF5FAACFB6
:10313000FA01EE0FFF1FE40FF51FE457FC4F118259
:1031400010821282F3CFB0E0A0E0E9EAF8E10C943B
:10315000B32BEC014C81042F10E09801D8010E94A0
:10316000842B9B01AC010E949A2B4B015C01E0E295
:10317000F0E0E01BF10BA5E5B0E0AC019B010E9483
:103180009A2B6B017C019F01DF010E947C2B9B012C
:10319000AC010E94A52B9B01AC01280D391D4A1DD5
:1031A0005B1DC701B6010E94542BF22E822F90E0C6
:1031B00039E23F1520F143E0249F90011124359519
:1031C0002795122F109500E085E5E82EEF188091E5
:1031D0001501081718F10E94F3159C8181E09923CD
:1031E00019F0903219F48FEF80930E0180910E0147
:1031F000890F8C83CDB7DEB7ECE00C94CF2B25E59F
:1032000030E0B901681B790B9B01220F331F260F99
:10321000371F37FFD4CF2F5F3F4FD1CF8E2D01FD0A
:103220008F2D20911301622F600F7727771F9B014D
:10323000220F331F260F371F24573C4F412F609119
:1032400089030E9472150F5FC2CF0F931F93CF9314
:10325000DF93EC0110E000E090911501901711064A
:1032600009F06CF40E94F3158C8190E00196817056
:1032700099278C83DF91CF911F910F910895209111
:103280001301A801420F511D9A01220F331F240F71
:10329000351F24573C4F4C816091890380918803EE
:1032A00096959017110651F04CF0442349F0409147
:1032B0008A030E9472150F5F1F4FCECF4423B9F3CC
:1032C00040E0F7CFB0E0A0E0E8E6F9E10C94AF2BE6
:1032D000FC016280448081E08483EDE4F2E074903C
:1032E000ECECF2E0E491812C75E0972EF2E0CF2E29
:1032F000DD24D394AA24AA94B12C55245A94E71916
:103300000E2F10E080911501881638F00E94F315F9
:10331000CDB7DEB7E0E10C94CB2BE82CF12C82E0AA
:10332000861568F09E9CF0019F9CF00D1124E254DC
:10333000FD4F8091880380838091890381834110B0
:1033400023C09E9CF0019F9CF00D1124E254FD4F80
:103350001382128220911301C701820F911D9C01DB
:10336000220F331F280F391F24573C4F9E9CF0011A
:103370009F9CF00D1124E254FD4F428161818081B8
:103380000E9472158394BECF9E9CE0019F9CD00D3D
:103390001124C254DD4F8B818823E9F081508B8347
:1033A000859DC00111246C8170E00E942C2BFB01D3
:1033B000FF27E35BFD4F8491E82FE719E59DC001EE
:1033C0001124B8010E942C2B80918A03689FB001C0
:1033D00011247A83BFCF0E94302C20918A03269536
:1033E00021582C9DA0012D9D500D1124452F5527AE
:1033F000841795070CF0AECF82E0861588F40E9402
:10340000302CB5010E94402B88830E94302C2091E3
:1034100089032695622F70E00E94402B280F298394
:103420009E9CF0019F9CF00D1124E254FD4F1282EE
:1034300080918A03893C58F088EC9E9CF0019F9C07
:10344000F00D1124E254FD4F8483838383CF8431B4
:10345000A0F784E1F2CFE7E8F3E080818E7F8083FC
:1034600060817181828193810E94931510922C0357
:103470002FEF80E792E0215080409040E1F700C0BC
:1034800000000E94F3150895E7E8F3E080818E7F45
:10349000808310922C032FEF80E792E02150804030
:1034A0009040E1F700C000000E94F31508951092CB
:1034B0002C038091290381110AC081E080932903A4
:1034C000809187038170809328030E94441A089595
:1034D00060918703669570E04BE050E086E191E0F3
:1034E0000E94402C892B19F481E080932C030E94C8
:1034F000B823909323038093220308959091870328
:1035000090FF2BC09170811129C092609093870326
:10351000662351F06091870370918803809189033D
:1035200090918A030E94931560918703669570E0DD
:103530004BE050E086E191E00E94402C892BA9F0FD
:1035400010922C0381E08093250340918A036091BF
:103550008903809188030E947F1708958B3210F0B1
:103560009465D4CF880F982BD1CF0E94681AEACFE8
:10357000682F90918703969581E0890F8B3208F030
:1035800081E00E947E1A089581E00E94B81A089591
:10359000682F9091870396958FEF890F09F48AE23F
:1035A0000E947E1A089581E00E94C81A089561E081
:1035B0000E947E1A0895E7E8F3E0808181608083AD
:1035C00086950E94D71A08958091870380FF03C0D3
:1035D0000E942B1A08950E94DB1A089560E00E9451
:1035E0007E1A089580912A0381112EC00E941E0D1B
:1035F000811104C00E94C70D0E94A6150E948E155D
:1036000060938703709388038093890390938A0360
:103610006E7F61F40E94A6150E948E156093870349
:10362000709388038093890390938A030E9478158E
:1036300010922C038091870380FF03C086950E941F
:10364000EE1A81E080932A030895E7E8F3E0808191
:103650008160808386950E94EE1A08951092290356
:103660008091280381110E94251B0E94681A0895E9
:103670000F931F93CF93DF9380912C038823B9F18D
:1036800080912B03E0918703E695E81BE0932403E8
:10369000823091F5F0E0E75BFD4FE491CE2FD0E072
:1036A00007E416E180912503882361F01092250339
:1036B0000E94B82390932303809322031092270340
:1036C000109226030E94B823E0912203F091230375
:1036D0008E1B9F0B8F3F9F4750F4EC0FFD1FF09305
:1036E0002303E093220382E293E0F8010995DF913E
:1036F000CF911F910F910895863049F4F0E0EA5B75
:10370000FD4FE491CE2FD0E00BE516E1CBCF893011
:1037100051F4E695F0E0ED5BFD4FE491CE2FD0E063
:1037200003E817E1BFCF8F3051F4E695F0E0E05C9D
:10373000FD4FE491CE2FD0E000EC17E1B3CF8531FF
:1037400049F4F0E0E35CFD4FE491CE2FD0E000E3DC
:1037500018E1A8CFC8E2D0E003EA18E1883109F403
:10376000A1CF833239F4EBE3F2E0C591D4910BE6BB
:1037700016E198CFC4EFD1E005E219E1843209F4F3
:1037800091CFC0EDD7E000E615E1853209F08ACF90
:103790008E2F63E00E94122BE92FF0E0E85CFD4FD2
:1037A000E491CE2FD0E002E619E17CCFFA0181113D
:1037B00001C0FB0109950895CF93DF93C82FD62F41
:1037C0000E94B7158C1748F00E94B7158D1728F482
:1037D0000E94C41ADF91CF9108958C2F0E94D71AAE
:1037E000F9CF1F93CF93DF93EC01FB0112811111ED
:1037F0001BC00E94300C8272CD3CFCE5DF0709F44F
:10380000A0C008F045C0C73CECE5DE0709F485C060
:10381000F8F4C43C9CE5D90709F475C050F4C33CE6
:10382000DC4509F46DC011E0812FDF91CF911F912C
:103830000895C53C9CE5D90709F46AC047E357E100
:1038400068E277E1C63CDC4571F70E94D61BECCFFD
:10385000CA3CFCE5DF0709F46AC068F4C83CECE543
:10386000DE0709F45FC048E457E169E577E1C93C48
:10387000DC4559F3D8CFCB3C9CE5D90709F45CC0B3
:103880004BEE55E163ED75E1CC3CDC45F1F2CBCF7D
:10389000C23DFCE5DF0709F463C098F4CF3C9CE52A
:1038A000D90709F457C008F451C0C03DFCE5DF0753
:1038B00009F453C0C13DDC4509F0B5CF6EE089E0A5
:1038C0001CC0C53D9CE5D90709F450C058F4C33D60
:1038D000FCE5DF0709F447C0C43DDC4509F0A3CF90
:1038E00088E135C0C63D9CE5D90709F442C06AE2CB
:1038F00085E2CE35DD4509F096CF0E94DC1B94CFE2
:103900000E94E41A91CF43ED5AE164EC7AE19DCF35
:1039100044EC5AE163ED7AE198CF48E257E167E37E
:1039200077E193CF49E557E168E477E18ECF4BE744
:1039300057E16AE677E189CF4AE657E16BE777E13D
:1039400084CF43ED55E16BEE75E17FCF81E00E94BE
:10395000D71A6ACF65E082E0D0CF68E086E0CDCFAD
:1039600064E18FE0CACF67E185E1C7CF62E289E118
:10397000C4CF83E2ECCF86E090E00E94632C0895F0
:10398000682F86E090E00E94772C0895E8ECF3E041
:1039900080818470896180830E94C01C0895809119
:1039A000C80386958695869508958091C80381FD04
:1039B00007C082608093C8030E94C01C0E94A51E9D
:1039C00008958091C80381FF07C08D7F8093C8034D
:1039D0000E94C01C0E94B11E08958091C80381FFFF
:1039E00003C00E94E11C08950E94D51C0895809197
:1039F000C8038695817008958091210108950E94E1
:103A00001E0D811104C00E94C70D0E94C61C0E9499
:103A1000BB1C8093C803803220F08770886180933C
:103A2000C8039091C803892F817090FF04C0892F2B
:103A30008695869586950E94791E08958091C80383
:103A4000982F969596959695933040F49F5F990F91
:103A5000990F990F8770892B8093C8038091C803B1
:103A600081608093C8030E94C01C8091C803869522
:103A7000869586950E94791E08958091C803982F97
:103A8000987F79F088508093C803887F91E009F48B
:103A900090E08091C80390FB80F98093C8030E9456
:103AA000C01C8091C8038695869586950E94791ED4
:103AB00008958091C80380FD13C081608093C8037E
:103AC000813019F489E08093C8038091C8030E9473
:103AD000C01C8091C8038695869586950E94791EA4
:103AE00008958091C80380FF08C08E7F8093C8032B
:103AF0000E94C01C80E00E94791E08958091C80336
:103B000080FF03C00E94711D08950E94591D0895F1
:103B10009091C803892F8695869586958F5F8F71C2
:103B200097708430E0F4880F880F880F892B80937A
:103B3000C8038091C803887F91E009F490E08091E8
:103B4000C80390FB80F98093C8030E94C01C809139
:103B5000C8038695869586950E94791E0895909350
:103B6000C803E7CF843008F083E09091C8039770D2
:103B7000282F220F220F220F922B9093C803987F99
:103B800021E009F420E09091C80320FB90F9909384
:103B9000C8030E94791E08950E94B21D8091C80337
:103BA0000E94C01C0895FC01DB0112968C918823B1
:103BB000F9F0EC5BFC45E730F105D8F4E852F34D41
:103BC0000C94762B83E00E94CC1D80E0089580E069
:103BD000FACF0E943D1DF9CF0E941E1DF6CF0E9414
:103BE0007E1DF3CF0E94881DF0CF0E94ED1CEDCF0B
:103BF00081E00895269A2E9808952E980895B0E0B1
:103C0000A0E0E5E0FEE10C94B32B8C0180918600EE
:103C1000909187006CE070E00E942C2B6017710778
:103C200058F0C80169E070E00E942C2BCB01CDB7A1
:103C3000DEB7ECE00C94CF2B80918600909187004A
:103C4000E0908600F0908700C0908600D0908700BA
:103C5000C6E0D0E0BE010E942C2B30E020E0060F31
:103C6000171F211D311D4801590185E0880C991C41
:103C7000AA1CBB1C8A95D1F7C701BE010E942C2B40
:103C8000F12CE12CA7019601260F371F411D511D74
:103C9000C501B4010E94542B69017A01E0918600AC
:103CA000F0918700CA01B9010E94022B9B01AC016F
:103CB000DF010E949A2B9B01AC01C701B6010E9453
:103CC000022B2FE096958795779567952A95D1F7E2
:103CD000009186001091870030E020E0061717075A
:103CE0002807390708F0A2CF6091860070918700FD
:103CF0009DCFCF93C82F843000F581111FC08091D4
:103D000080008F7D809380000E94FD1DA091860021
:103D1000B09187002C2F30E00E94842B23E030E00C
:103D200040E050E00E94542BC9010E94FF1D909377
:103D30008B0080938A00CF910895C3E0809180002A
:103D4000806280938000E2CF089510922E0310923B
:103D50002D0310922F03EFE6F0E0808181608083D5
:103D60000895EFE6F0E080818E7F80830E94CF1C73
:103D70000E94791E08951F920F920FB60F92112480
:103D8000EF92FF920F931F932F933F934F935F9365
:103D90006F937F938F939F93AF93BF93CF93EF9343
:103DA000FF93809122018230C9F08F5F80932201BE
:103DB000FF91EF91CF91BF91AF919F918F917F91A3
:103DC0006F915F914F913F912F911F910F91FF90B4
:103DD000EF900F900FBE0F901F90189581E0809389
:103DE00022010E94FC1CC82F00912D0310912E036C
:103DF0000F5F1F4F0E94FC1C28E7829FB001112417
:103E0000C8010E942C2B90932E0380932D03C29FF8
:103E1000B0011124660F672F661F770B71950E9402
:103E20002C2B67FD6FE780912F03823041F46034C3
:103E300051F480916F008E7F80936F0004C08130B9
:103E400011F46F37B1F3E62FF0E0EE5AFC4FC49156
:103E5000E0908600F09087000E94CF1C182F2C2F36
:103E600030E0D7010E94842B2FEF30E040E050E09B
:103E70000E94542BC90163E070E00E942C2B169F16
:103E8000C001179F900D11240E94FF1D90938B007D
:103E900080938A008DCF0E94FA1D82E28093800079
:103EA00089E1809381008FEF9FEF9093870080934B
:103EB00086000E94FF1C0E94F71C81110E94A51E13
:103EC00008956A9A4EB14B7F5EB15460EFB7F89493
:103ED0009B01220F331F260F371F280F391F28176A
:103EE000390741F4EFBF8FE594E00197F1F700C087
:103EF00000000895DC016D91CD0178E05EB900000D
:103F000000C067FF4EB9660F000000C000C000C0CF
:103F10004EB900C07A9591F7E2CFCF93DF93EC01D1
:103F2000FB018281882309F464C1C430FDE5DF0709
:103F3000E0F5CB3F9CE5D90730F49E0122503C458B
:103F400024313105D8F50E94330D9093620380939C
:103F50006103C231ECE5DE0709F41FC108F06EC051
:103F6000C9308CE5D80709F4F2C008F03FC0C5306D
:103F7000ECE5DE0709F4DBC058F5C3308CE5D80763
:103F800009F4CDC008F0CFC0809161038160C230D8
:103F9000DC4509F4AEC080916103909162030E94F8
:103FA000410D0E94B40780E009C0C63AEDE5DE0786
:103FB00051F238F4C2369DE5D90729F2DF91CF914D
:103FC00008959E012E5A3D4523303105B8F7BBCFE9
:103FD000809161038062C730FCE5DF0709F489C086
:103FE00008F4B1C080916103806483C0CD309CE54A
:103FF000D90709F4BAC070F4809161038E7FCB3089
:10400000FCE5DF0709F475C008F4A7C080916103DF
:104010008D7F6FC0CF309CE5D90709F4B6C008F496
:10402000A8C0C031FCE5DF0709F4B3C0C131DC45ED
:1040300009F0B1CF809161038F7B5BC0C1159DE515
:10404000D90709F4B4C098F5CB3FFCE5DF0709F4C4
:1040500072C0B8F4C4319CE5D90709F4B6C008F4BD
:10406000A2C0C531DC4509F096CF8091610382FB87
:10407000992790F921E0922790FB82F990FB83F930
:1040800038C0CD3F8CE5D80709F477C008F457C095
:10409000CE3FECE5DE0709F474C0809162038360D3
:1040A000CF3FDC4509F077CF8093620374CFC236EF
:1040B0008DE5D80709F496C068F4C230EDE5DE0757
:1040C00009F48CC008F477C0C330DD4509F063CF34
:1040D00080E085C0CE3A9DE5D907E9F068F490917B
:1040E0006103892F8E7F90FF8160C63ADD4509F01C
:1040F00052CF809361034FCFCF3A8DE5D80789F136
:10410000C03BDD4509F047CF90916203892F877F3F
:1041100093FF8860C9CF809162038860C5CF80918A
:1041200061038260E6CF809161038460E2CF809179
:1041300061038860DECF809162038160B5CF80919A
:1041400062038260B1CF809161038061D2CF0E940F
:10415000B407809161038068CCCF809161038C604B
:10416000C8CF80916203877F9FCF809161038B7F4F
:10417000C0CF80916103877FBCCF809162038E7F27
:1041800093CF809162038D7F8FCF809161038F7E6B
:10419000B0CF809161038F7DACCF0E94B407809136
:1041A00061038F77A6CF80916103837FA2CF809137
:1041B00062038C7F79CF80916203982F90959170E4
:1041C0008E7F892B90FB81F96FCF0E94B40790916D
:1041D0006103892F97FB87F980588BCF81E00E947C
:1041E000CA0DD9CE90916103892F8F7E94FF806193
:1041F00080CF81E0E3CECF93DF93EB0186319C4506
:1042000011F50E94300C9A81992399F08A7A91E0F5
:1042100009F490E090933003811109C089E20E9473
:10422000080C0E94710C80E0DF91CF91089585E326
:10423000F6CF80913003811104C089E20E94100CF6
:10424000F0CF85E3FBCF81E0EFCF0F931F93CF93A8
:10425000DF93C42FD22FFC0182818823C9F04093C1
:1042600033030E94B823909332038093310380E29A
:104270008C0F883040F4C77081E001C0880FCA9568
:10428000EAF70E945605DF91CF911F910F91089593
:1042900010913303141332C0809131039091320393
:1042A0000E94D023883C910548F5C0E2CD0F1D1730
:1042B000B9F080E2810F883040F4177081E001C0CE
:1042C000880F1A95EAF70E945D05C83048F481E02E
:1042D0009D2F977001C0880F9A95EAF70E945605A6
:1042E000802F0E944D05C83070F6D77081E001C064
:1042F000880FDA95EAF70E945D05C5CF80E28C0F42
:10430000883008F6C77081E001C0880FCA95EAF7C7
:10431000F2CF0F939C01CB01243F4CE5340759F1B8
:10432000A8F4293DFCE53F0701F12A3D4CE534079F
:10433000D1F1283D3C4591F406E221EE41EE68EDD5
:104340007CE50E94252180E00F910895263FFCE541
:104350003F07E9F0B0F0273F3C45F9F0FC018281CE
:10436000882339F110923303EFCF07E225EE45EEB3
:1043700069ED7CE5E6CF06E221EE40EE64EF7CE5F8
:10438000E0CF07E225EE44EE65EF7CE5DACF06E20A
:1043900021EE42EE66EF7CE5D4CF07E225EE46EE55
:1043A00067EF7CE5CECF08E221E045EE6AED7CE5E3
:1043B000C8CF81E0C9CF9093D3018093D2010895F3
:1043C00090933903809338030895E0913803F09176
:1043D0003903309729F00190F081E02D0995089577
:1043E00080E00895E0913803F0913903309799F017
:1043F00020912F01222359F02091610327FF07C04C
:10440000DC012C9111962C93119726E02C930280BD
:10441000F381E02D09950895E0913803F091390377
:10442000309739F022E0DC012C930480F581E02DF7
:1044300009950895209136033091370328173907DD
:1044400071F09093370380933603E0913803F09135
:104450003903309721F00680F781E02D0995089502
:1044600020913403309135032817390771F0909368
:10447000350380933403E0913803F091390330978A
:1044800021F00084F185E02D09950895FC01329614
:1044900080912F01882321F0809161039EE187FFA5
:1044A00096E080E0915008F4089521912223D1F301
:1044B0008F5FF8CF662301F120912F012223F1F0C5
:1044C0002091610327FF1AC0462F469546954695D1
:1044D0004E3190F4677021E030E002C0220F331FAC
:1044E0006A95E2F7840F911DFC01828190E02823F8
:1044F000392381E0232B69F480E00895FC01329692
:1045000008962191261721F0E817F907D1F7F4CF83
:1045100081E008959C01FC0132969FEF80E041917B
:10452000461751F09F3F19F4411101C0982F8F5F3A
:104530008630A9F79F3F09F40895290F311D97FD93
:104540003A95F90162830895FC013296089621910B
:10455000261303C0DF0111971C92E817F907B9F77A
:104560000895E62FE695E695E695EE3168F4E80FB6
:10457000F92FF11D677021E030E001C0220F6A952C
:10458000EAF78281822B82830895E62FE695E695ED
:10459000E695EE3170F4E80FF92FF11D677021E018
:1045A00030E001C0220F6A95EAF720958281282326
:1045B0002283089520912F01222339F02091610355
:1045C00027FF03C00E94B12208950E948A22089505
:1045D00020912F01222339F02091610327FF03C08E
:1045E0000E94C52208950E94A4220895FC013296DB
:1045F00080912F01882351F08091610387FF06C0CD
:104600008EE1DF011D928A95E9F7089586E0F9CFE2
:1046100046E050E00E944D2C21E0892B09F420E077
:10462000822F089508950E9412230895811106C0D3
:1046300081E080933A030E941323089582E0F9CF2A
:1046400083E080933A030E94132308950E94162367
:10465000089581E080933A030E94132308950E94F5
:1046600029230895089508950E94332308950895F5
:1046700008950E9432230895CF930E9437230E9409
:10468000AF110E943823C0E08C2F0E94E010892BCC
:1046900031F4CF5FC930C1F780E0CF91089581E058
:1046A000FCCF85B7806885BF85B7806885BF0895D2
:1046B0001F921FB61F9211248F939F93AF93BF93A6
:1046C00080913B03811113C08091C9039091CA036B
:1046D000A091CB03B091CC034196A11DB11D809355
:1046E000C9039093CA03A093CB03B093CC03BF91AB
:1046F000AF919F918F911F901FBE1F901895809131
:10470000D103843031F10E94280410923B0388E1E8
:1047100090E020E40FB6F894A895809360000FBE57
:104720002093600083B7817F846083BF83B78160FB
:1047300083BF7894889583B78E7F83BF0FB6F89434
:10474000A89580916000886180936000109260005D
:104750000FBE08950E94B4070E943204089582E0BB
:1047600084BD93E095BD9AEF97BD80936E00089548
:104770002FB7F8948091C9039091CA03A091CB03FD
:10478000B091CC032FBF08952FB7F8946091C9035F
:104790007091CA038091CB039091CC032FBF0895F1
:1047A0009C014FB7F8948091C9039091CA03A091DE
:1047B000CB03B091CC034FBF821B930B0895789429
:1047C0001F921FB61F9211248F939F93AF93BF9395
:1047D0008091C9039091CA03A091CB03B091CC03FF
:1047E0000196A11DB11D8093C9039093CA03A093A4
:1047F000CB03B093CC03BF91AF919F918F911F904A
:104800001FBE1F90189581E08093E00080E28093A6
:10481000D8001092C9008FE19EE40197F1F700C023
:10482000000087E090EBDC018093DA039093DB03D8
:10483000A093DC03B093DD0388E19CE00FB6F8940D
:10484000A895809360000FBE90936000FFCF88E131
:104850009CE00FB6F894A895809360000FBE9093EB
:104860006000FFCF80915F03089508959C0182E06E
:104870008093E9009FEF8091E800915085FD06C08C
:1048800085ED8A95F1F700009111F5CF8091E80050
:1048900085FF0CC050E040E066E070E0C9010E9476
:1048A0007B268091E8008E778093E8000895CF936F
:1048B000DF93EC0180912F018823B1F18091610396
:1048C00087FF32C060E282E08093E9008FEF909131
:1048D000E800815095FD06C095ED9A95F1F700002E
:1048E0008111F5CF8091E80085FF1BC080912F01D9
:1048F00070E050E040E0811104C050E040E068E02A
:1049000070E0CE010E947B268091E8008E77809334
:10491000E80080E2FE01AFE3B3E001900D928A95DA
:10492000E1F7DF91CF91089568E081E0CDCF8093EA
:104930003C0370933E0360933D038091D103843028
:1049400001F582E08093E9008FEF9091E8008150BB
:1049500095FD06C095ED9A95F1F700008111F5CF10
:104960008091E80085FF0DC050E040E063E070E01A
:104970008CE393E00E947B268091E8008E77809301
:10498000E8000895BC0184E00E9497240895BC01CA
:1049900083E00E94972408958091D003811109C07B
:1049A0000E940B280E9468288091E2008460809316
:1049B000E20008951092D00308950E9429230895DB
:1049C0006091CD0381E0611101C080E00E9420234D
:1049D00008959091D10381E0943009F080E06091D6
:1049E000CD030E942623089542E061EC81E00E94FD
:1049F000872742E261EC82E00E9487279091D103F1
:104A000081E0943009F080E06091CD030E9416238C
:104A100008958091D303833009F461C030F481306C
:104A2000D1F1823009F49EC008958A3009F48AC019
:104A30008B3009F46FC0893009F050C08091D203E7
:104A4000813209F04BC08091D6039091D703029731
:104A500008F044C08091E800877F8093E80080914F
:104A6000E80082FF37C09091F3008091F200029736
:104A700031F48091F100813011F0863021F4809181
:104A8000F10080935F038091E8008B778093E800CA
:104A90000E94BB2723C08091D203813AF9F4809110
:104AA000E800877F8093E8008091D6039091D70338
:104AB000892B61F460E28FE393E070E00E94CA26E4
:104AC0008091E8008B778093E800089560E090E0A3
:104AD00080E0F3CF8091D1038111C1CF08958091FF
:104AE000D203813AD9F78091D6039091D703892BCD
:104AF000A9F78091E800877F8093E8008091E80023
:104B000080FFFCCF80912F018093F1008091E8001D
:104B10008E77BCCF8091D203813201F78091D6038A
:104B20009091D703892BD1F68091E800877F8093FD
:104B3000E8000E94BB278091D40380932F010E943C
:104B4000B40708958091D203813241F68091E80044
:104B5000877F8093E8000E94BB278091D5038093D4
:104B6000600308958091D203813A09F0B7CF809114
:104B7000E800877F8093E8008091E80080FFFCCF09
:104B800080916003C1CF84B7877F84BF0FB6F8944C
:104B9000A895809160008861809360001092600009
:104BA0000FBE80E890E00FB6F89480936100909378
:104BB00061000FBE0E942F2308950E940B280E94BF
:104BC0006828E2EEF0E080818460808378940E941F
:104BD000E72A089583E291E00E94E0210895809100
:104BE000D103853031F48091D103853019F00E94D2
:104BF000AA2308950E947F238091CF03882399F3ED
:104C00000E943C23882379F30E9465260E94B40702
:104C1000EACF08950E940D260895292F33272330C7
:104C2000310519F168F42130310509F444C022300E
:104C3000310509F445C090E080E030E020E025C077
:104C40002132310549F122323105A9F780E490E0A3
:104C50002FEF35E061157105C1F086EB90E029E496
:104C600035E06130710589F0E6CF992781309105F3
:104C700081F0009729F00297F1F6E2EDF4E002C02E
:104C8000E8EFF4E0849190E09F01FA013183208302
:104C90000895E8EEF4E0F6CF89E090E02EE035E00C
:104CA0006115710591F389E090E027E235E061300C
:104CB000710559F3C0CF82E190E027E335E0E5CFFD
:104CC0008BE390E02CEF34E0E0CF80E189BD82E11E
:104CD00089BD09B400FEFDCF8091D8008F7D8093FF
:104CE000D8008091E00082608093E0008091E00035
:104CF00081FDFCCF0895AF92BF92CF92DF92FF92D9
:104D00000F931F93CF93DF936C01EB018A010E94F5
:104D1000DA27F82E811123C00115110539F0F801A9
:104D200080819181C81BD90BC80ED91EB12CA12C32
:104D30002097A9F08091E80085FD22C08091E800CD
:104D40008E778093E80001151105A1F0F8018081AC
:104D50009181A80EB91EB182A08285E0F82E8F2D18
:104D6000DF91CF911F910F91FF90DF90CF90BF9077
:104D7000AF9008950E94DA278823D1F2F82EEFCF62
:104D8000F60181916F018093F1002197FFEFAF1A37
:104D9000BF0ACECFFC018091D8039091D90386172A
:104DA0009707A0F06115710529F49091E8009E77AE
:104DB0009093E80090E06115710551F4911108C0DD
:104DC0008091E80082FF34C080E00895BC01F2CFFA
:104DD0008091D1038823C1F18530C1F18091E80031
:104DE00083FD30C08091E80082FDEACF8091E80029
:104DF00080FFE1CF8091F3002091F200382F611500
:104E0000710519F02830310558F091E0283031054E
:104E100009F090E02091E8002E772093E800CBCFB6
:104E200081918093F100615071092F5F3F4FE7CF6F
:104E30008091D103882341F0853041F08091E800D2
:104E400083FFBECF81E0089582E0089583E0089556
:104E5000FC018091D8039091D90386179707A0F0A1
:104E60006115710529F48091E8008E778093E80040
:104E700090E06115710551F4911108C08091E8002E
:104E800082FF35C080E00895BC01F2CF8091D1034C
:104E90008823C9F18530C9F18091E80083FD31C0D4
:104EA0008091E80082FDEACF8091E80080FFE1CFA9
:104EB0008091F3002091F200382F6115710519F0EF
:104EC0002830310558F091E02830310509F090E0A4
:104ED0008091E8008E778093E800CBCF8491809317
:104EE000F1003196615071092F5F3F4FE6CF8091FD
:104EF000D103882341F0853041F08091E80083FFA1
:104F0000BDCF81E0089582E0089583E00895982F51
:104F1000973028F08F708093E90081E00895909396
:104F2000E900242F762F50E0981731F07091EC00B3
:104F30002091ED005091F00021FD02C09F5FE8CF6D
:104F40003091EB003E7F3093EB003091ED003D7FE0
:104F50003093ED003091EB0031603093EB007093B3
:104F6000EC002093ED005093F0002091EE0027FD1F
:104F7000E5CF80E008958091D20387FF13C0809130
:104F8000E80082FF06C08091E8008B778093E800FC
:104F900004C08091D1038111F2CF08958091D10393
:104FA0008823D9F38091E80080FFF8CF8091E80052
:104FB0008E77ECCF2091E4003091E50095E6A901D1
:104FC0002091EC00822F817020FF06C08091E800C4
:104FD00080FF06C080E008952091E80022FD1AC0FD
:104FE0008091D103882389F0853089F08091EB008E
:104FF00085FD0FC02091E4003091E5004217530772
:10500000F9F29150E1F684E0089582E0089583E09A
:10501000089581E008950E947A280E948228E0EE97
:10502000F0E0808181608083E8EDF0E080818F771F
:10503000808319BCA7EDB0E08C918E7F8C9380812A
:105040008F7E80831092D00308950F931F93CF9388
:10505000DF930E947A280E948228C8EDD0E08881E0
:105060008F77888388818068888388818F7D888313
:1050700019BC1092D1031092CD031092CF0310925D
:10508000CE0300EE10E0F80180818B7F8083888161
:105090008160888342E060E080E00E948727E1EE43
:1050A000F0E080818E7F8083E2EEF0E0808181609D
:1050B0008083808188608083F80180818E7F8083F7
:1050C000888180618883DF91CF911F910F9108952E
:1050D000E8EDF0E080818F7E8083E7EDF0E0808175
:1050E0008160808384E082BF81E08093D0030E944E
:1050F00025280895E8EDF0E080818E7F808310926E
:10510000E20008951092DA001092E10008951F92D3
:105110000F920FB60F9211242F933F934F935F93EB
:105120006F937F938F939F93AF93BF93EF93FF936F
:105130008091E10082FF0BC08091E20082FF07C0F6
:105140008091E1008B7F8093E1000E94E62A8091AC
:10515000DA0080FF19C08091D80080FF15C08091CF
:10516000DA008E7F8093DA008091D90080FF96C0AC
:1051700080E189BD82E189BD09B400FEFDCF81E0F7
:105180008093D1030E94CC248091E10080FF19C05C
:105190008091E20080FF15C08091E2008E7F8093B5
:1051A000E2008091E20080618093E2008091D8006B
:1051B00080628093D80019BC85E08093D1030E945F
:1051C000E0248091E10084FF2BC08091E20084FF05
:1051D00027C080E189BD82E189BD89B5982F917092
:1051E00080FFFBCF8091D8008F7D8093D800809185
:1051F000E1008F7E8093E1008091E2008F7E8093BA
:10520000E2008091E20081608093E2008091CD0312
:10521000882309F449C084E08093D1030E94E924E3
:105220008091E10083FF29C08091E20083FF25C0C7
:105230008091E100877F8093E10082E08093D10339
:105240001092CD038091E1008E7F8093E1008091E8
:10525000E2008E7F8093E2008091E2008061809383
:10526000E20042E060E080E00E9487278091F00049
:1052700088608093F0000E94DD24FF91EF91BF9140
:10528000AF919F918F917F916F915F914F913F91DE
:105290002F910F900FBE0F901F90189519BC109270
:1052A000D1030E94DA2470CF8091E30087FD93E060
:1052B0009093D103B3CF1F920F920FB60F92112488
:1052C0002F933F934F935F936F937F938F939F930E
:1052D000AF93BF93CF93DF93EF93FF93D091E90008
:1052E000DF708091EC00C82FC17080FDC0E8109283
:1052F000E9008091F000877F8093F00078940E940D
:105300009F291092E9008091F00088608093F0005E
:10531000CD2BCF70C093E900FF91EF91DF91CF913A
:10532000BF91AF919F918F917F916F915F914F91BD
:105330003F912F910F900FBE0F901F901895AAE2EA
:10534000B0E0E5EAF9E20C94BC2B82ED93E0209109
:10535000F100FC012193CF01F3E08A3D9F07B9F7EB
:105360000E9409258091E80083FF1EC18091D2032D
:105370009091D3039A3008F017C1E92FF0E0E15281
:10538000F34D0C94762B803899F0823809F00CC1DB
:105390008091D6038F70873008F006C18093E900B2
:1053A0008091EB0085FB882780F91092E90006C008
:1053B0008091CE039091CF03911182609091E8008B
:1053C000977F9093E8008093F1001092F100809114
:1053D000E8008E77E5C0882309F4D3C0823009F055
:1053E000E3C08091D4038111D6C08091D6038F7021
:1053F0002FEF280F263008F0D7C08093E9002091C6
:10540000EB0020FFC8C0933031F48091EB00806244
:105410008093EB00C0C09091EB0090619093EB0003
:1054200021E030E001C0220F8A95EAF72093EA00DC
:105430001092EA008091EB008860EACF8111B4C03D
:105440001091D4031F778091E3008078812B8093A3
:10545000E3008091E800877F8093E8000E94BB27EB
:105460008091E80080FFFCCF8091E300806880930A
:10547000E30082E0111183E08093D10395C080584E
:10548000823008F091C08091D4039091D5038C3D77
:1054900023E09207A1F583E08A838AE289834FB7EC
:1054A000F894DE01139620E03EE051E2E32FF0E0B5
:1054B00050935700E49120FF03C0E295EF703F5FE7
:1054C000EF708E2F90E0EA30C0F0C7968D939D93D9
:1054D0002F5F243159F74FBF8091E800877F809379
:1054E000E8006AE270E0CE0101960E94CA2680912F
:1054F000E8008B778093E80057C0C096E7CF6091B3
:10550000D6037091D703AE014F5F5F4F0E940A260A
:10551000BC01892B09F448C09091E800977F9093D3
:10552000E80089819A810E942827E1CF8038E1F53F
:105530008091E800877F8093E8008091CD0380937D
:10554000F10045CF811130C09091D403923060F5C5
:105550008091E800877F8093E8009093CD030E94BC
:10556000BB278091CD03882311F084E005C0809192
:10557000E30087FDFACF81E08093D1030E94F424F9
:1055800013C08091D403813079F481E0933009F025
:1055900080E08093CF031092E9008091E800877F3C
:1055A0008093E8000E94BB278091E80083FF0AC037
:1055B0008091E800877F8093E8008091EB00806213
:1055C0008093EB00AA96E3E00C94D82B0895CF9338
:1055D0008091D1038823A1F0C091E900CF70909110
:1055E000EC00892F817090FD80E8C82B1092E900B3
:1055F0008091E80083FD0E949F29CF70C093E9004D
:10560000CF910895DB018F939F930E949A2BBF91B6
:10561000AF91A29F800D911DA39F900DB29F900D01
:1056200011240895991B79E004C0991F961708F07A
:10563000961B881F7A95C9F78095089587FB082ED9
:10564000062687FD819567FD61950E94122B0EF459
:10565000919507FC81950895AA1BBB1B51E107C0DA
:10566000AA1FBB1FA617B70710F0A61BB70B881FF2
:10567000991F5A95A9F780959095BC01CD01089581
:1056800097FB072E16F4009407D077FD09D00E94EF
:105690002C2B07FC05D03EF4909581959F4F0895E3
:1056A000709561957F4F0895A1E21A2EAA1BBB1B2E
:1056B000FD010DC0AA1FBB1FEE1FFF1FA217B307DE
:1056C000E407F50720F0A21BB30BE40BF50B661FF4
:1056D000771F881F991F1A9469F7609570958095B8
:1056E00090959B01AC01BD01CF010895EE0FFF1F06
:1056F0000590F491E02D09940E94842B332312F439
:105700008A1B9B0B0C94952BA29FB001B39FC001E9
:10571000A39F700D811D1124911DB29F700D811DDD
:105720001124911D08950E94842BB7FF0895821BB8
:10573000930B08950E94842BA59F900DB49F900D0C
:10574000A49F800D911D11240895B7FF0C949A2BEE
:105750000E949A2B821B930B08952F923F924F9297
:105760005F926F927F928F929F92AF92BF92CF92F1
:10577000DF92EF92FF920F931F93CF93DF93CDB7FA
:10578000DEB7CA1BDB0B0FB6F894DEBF0FBECDBF72
:1057900009942A88398848885F846E847D848C8443
:1057A0009B84AA84B984C884DF80EE80FD800C814C
:1057B0001B81AA81B981CE0FD11D0FB6F894DEBF2F
:1057C0000FBECDBFED0108958F929F92AF92BF9211
:1057D000CF92DF92EF92FF92CF93DF93EC0168813B
:1057E00079818A819B81611571058105910521F47B
:1057F00064E279ED8BE597E02DE133EF41E050E095
:105800000E94AB2C49015A019B01AC01A7EAB1E40B
:105810000E949A2B6B017C01ACEEB4EFA5019401C0
:105820000E94A82BDC01CB018C0D9D1DAE1DBF1D60
:10583000B7FF03C00197A109B04888839983AA8361
:10584000BB839F77DF91CF91FF90EF90DF90CF9058
:10585000BF90AF909F908F9008950E94E42B089581
:1058600080E091E00E94E42B0895B0E0A0E08093F6
:10587000000190930101A0930201B09303010895E8
:10588000FC014150504030F001900616D1F731979D
:10589000CF010895882799270895FB01DC0104C0F2
:1058A0008D910190801921F441505040C8F7881B18
:1058B000990B0895FB01DC0102C001900D9241504B
:1058C0005040D8F70895F999FECF92BD81BDF89A5E
:1058D000992780B50895A6E1B0E044E050E00C942B
:1058E0009D2CA8E1B0E042E050E00C949D2C262FC6
:1058F000F999FECF92BD81BDF89A019700B40216C6
:1059000039F01FBA20BD0FB6F894FA9AF99A0FBE73
:1059100008950396272F0E94782C0E94772C252F1C
:105920000E94782C242F0C94782C0196272F0E940B
:10593000782C0C94772CDC01CB01FC01F999FECF7B
:1059400006C0F2BDE1BDF89A319600B40D92415007
:105950005040B8F70895052E97FB1EF400940E945E
:10596000C22C57FD07D00E94542B07FC03D04EF4E5
:105970000C94C22C50954095309521953F4F4F4F38
:105980005F4F089590958095709561957F4F8F4FEB
:105990009F4F0895F894FFCF9F059F05D005D00530
:1059A0005D067906FF05FF058406F5060407040772
:1059B000E21DE71DE91DEC1DEF1DF21DF51DC329BC
:1059C000EB29D42AEB29D42A1E2A3F2AD42A962A44
:0259D000A22A09
:1059D200010000006C02280850011E0A1401010196
:1059E20002001400141401191A1B1C1D1E1F202171
:1059F200220601322457243624C724C22435240126
:105A0200E200E900EA00B500B600B700CD0083016C
:105A1200CC008A0192019401210223022402250270
:105A2200260227022A02B300B4006F0070008182AE
:105A320083E200E900EA00B500B600B700CD0083BA
:105A420001CC008A01920194012102230224022541
:105A520002260227022A02B300B4006F00700081FE
:105A620082833733323130C6F1F4F5F6F7909192F2
:105A720093959496973400010202020206060609E3
:105A820009090909090F0F0F0F0F0F15151518191D
:105A92001919191919191919192324252525252523
:025AA2002500DD
:00000001FF
